{
  "contractName": "Voting",
  "abi": [
    {
      "inputs": [],
      "stateMutability": "nonpayable",
      "type": "constructor"
    },
    {
      "anonymous": false,
      "inputs": [
        {
          "indexed": true,
          "internalType": "address",
          "name": "previousOwner",
          "type": "address"
        },
        {
          "indexed": true,
          "internalType": "address",
          "name": "newOwner",
          "type": "address"
        }
      ],
      "name": "OwnershipTransferred",
      "type": "event"
    },
    {
      "anonymous": false,
      "inputs": [
        {
          "indexed": false,
          "internalType": "uint256",
          "name": "proposalId",
          "type": "uint256"
        }
      ],
      "name": "ProposalRegistered",
      "type": "event"
    },
    {
      "anonymous": false,
      "inputs": [],
      "name": "ProposalsRegistrationEnded",
      "type": "event"
    },
    {
      "anonymous": false,
      "inputs": [],
      "name": "ProposalsRegistrationStarted",
      "type": "event"
    },
    {
      "anonymous": false,
      "inputs": [
        {
          "indexed": false,
          "internalType": "address",
          "name": "voter",
          "type": "address"
        },
        {
          "indexed": false,
          "internalType": "uint256",
          "name": "proposalId",
          "type": "uint256"
        }
      ],
      "name": "Voted",
      "type": "event"
    },
    {
      "anonymous": false,
      "inputs": [
        {
          "indexed": false,
          "internalType": "address",
          "name": "voterAddress",
          "type": "address"
        }
      ],
      "name": "VoterRegistered",
      "type": "event"
    },
    {
      "anonymous": false,
      "inputs": [
        {
          "indexed": false,
          "internalType": "address",
          "name": "voterAddress",
          "type": "address"
        }
      ],
      "name": "VoterRevoked",
      "type": "event"
    },
    {
      "anonymous": false,
      "inputs": [],
      "name": "VotesTallied",
      "type": "event"
    },
    {
      "anonymous": false,
      "inputs": [],
      "name": "VotingSessionEnded",
      "type": "event"
    },
    {
      "anonymous": false,
      "inputs": [],
      "name": "VotingSessionStarted",
      "type": "event"
    },
    {
      "anonymous": false,
      "inputs": [
        {
          "indexed": false,
          "internalType": "string",
          "name": "_message",
          "type": "string"
        }
      ],
      "name": "WhitelistPacked",
      "type": "event"
    },
    {
      "anonymous": false,
      "inputs": [
        {
          "indexed": false,
          "internalType": "address",
          "name": "_address",
          "type": "address"
        }
      ],
      "name": "WhitelistRevoked",
      "type": "event"
    },
    {
      "anonymous": false,
      "inputs": [
        {
          "indexed": false,
          "internalType": "enum Voting.WorkflowStatus",
          "name": "previousStatus",
          "type": "uint8"
        },
        {
          "indexed": false,
          "internalType": "enum Voting.WorkflowStatus",
          "name": "newStatus",
          "type": "uint8"
        }
      ],
      "name": "WorkflowStatusChange",
      "type": "event"
    },
    {
      "inputs": [],
      "name": "lastVoterIndex",
      "outputs": [
        {
          "internalType": "uint256",
          "name": "",
          "type": "uint256"
        }
      ],
      "stateMutability": "view",
      "type": "function",
      "constant": true
    },
    {
      "inputs": [],
      "name": "owner",
      "outputs": [
        {
          "internalType": "address",
          "name": "",
          "type": "address"
        }
      ],
      "stateMutability": "view",
      "type": "function",
      "constant": true
    },
    {
      "inputs": [
        {
          "internalType": "uint256",
          "name": "",
          "type": "uint256"
        }
      ],
      "name": "proposalVote",
      "outputs": [
        {
          "internalType": "uint256",
          "name": "index",
          "type": "uint256"
        },
        {
          "internalType": "string",
          "name": "description",
          "type": "string"
        },
        {
          "internalType": "uint256",
          "name": "voteCount",
          "type": "uint256"
        }
      ],
      "stateMutability": "view",
      "type": "function",
      "constant": true
    },
    {
      "inputs": [],
      "name": "renounceOwnership",
      "outputs": [],
      "stateMutability": "nonpayable",
      "type": "function"
    },
    {
      "inputs": [],
      "name": "status",
      "outputs": [
        {
          "internalType": "enum Voting.WorkflowStatus",
          "name": "",
          "type": "uint8"
        }
      ],
      "stateMutability": "view",
      "type": "function",
      "constant": true
    },
    {
      "inputs": [
        {
          "internalType": "address",
          "name": "newOwner",
          "type": "address"
        }
      ],
      "name": "transferOwnership",
      "outputs": [],
      "stateMutability": "nonpayable",
      "type": "function"
    },
    {
      "inputs": [
        {
          "internalType": "enum Voting.WorkflowStatus",
          "name": "_status",
          "type": "uint8"
        }
      ],
      "name": "revertState",
      "outputs": [
        {
          "internalType": "enum Voting.WorkflowStatus",
          "name": "",
          "type": "uint8"
        },
        {
          "internalType": "enum Voting.WorkflowStatus",
          "name": "",
          "type": "uint8"
        }
      ],
      "stateMutability": "nonpayable",
      "type": "function"
    },
    {
      "inputs": [],
      "name": "changeState",
      "outputs": [
        {
          "internalType": "enum Voting.WorkflowStatus",
          "name": "",
          "type": "uint8"
        }
      ],
      "stateMutability": "nonpayable",
      "type": "function"
    },
    {
      "inputs": [
        {
          "internalType": "address",
          "name": "_address",
          "type": "address"
        }
      ],
      "name": "revoke",
      "outputs": [],
      "stateMutability": "nonpayable",
      "type": "function"
    },
    {
      "inputs": [
        {
          "internalType": "address",
          "name": "_address",
          "type": "address"
        }
      ],
      "name": "register",
      "outputs": [],
      "stateMutability": "nonpayable",
      "type": "function"
    },
    {
      "inputs": [
        {
          "internalType": "address",
          "name": "_address",
          "type": "address"
        }
      ],
      "name": "isRegistred",
      "outputs": [
        {
          "internalType": "bool",
          "name": "",
          "type": "bool"
        }
      ],
      "stateMutability": "view",
      "type": "function",
      "constant": true
    },
    {
      "inputs": [
        {
          "internalType": "address",
          "name": "_address",
          "type": "address"
        }
      ],
      "name": "hasVoted",
      "outputs": [
        {
          "internalType": "bool",
          "name": "",
          "type": "bool"
        },
        {
          "internalType": "int256",
          "name": "",
          "type": "int256"
        }
      ],
      "stateMutability": "view",
      "type": "function",
      "constant": true
    },
    {
      "inputs": [
        {
          "internalType": "uint256",
          "name": "_proposalId",
          "type": "uint256"
        }
      ],
      "name": "vote",
      "outputs": [
        {
          "internalType": "bool",
          "name": "",
          "type": "bool"
        }
      ],
      "stateMutability": "nonpayable",
      "type": "function"
    },
    {
      "inputs": [
        {
          "internalType": "string",
          "name": "_description",
          "type": "string"
        }
      ],
      "name": "addProposal",
      "outputs": [
        {
          "internalType": "uint256",
          "name": "",
          "type": "uint256"
        }
      ],
      "stateMutability": "nonpayable",
      "type": "function"
    },
    {
      "inputs": [],
      "name": "getWinningProposal",
      "outputs": [
        {
          "components": [
            {
              "internalType": "uint256",
              "name": "index",
              "type": "uint256"
            },
            {
              "internalType": "string",
              "name": "description",
              "type": "string"
            },
            {
              "internalType": "uint256",
              "name": "voteCount",
              "type": "uint256"
            }
          ],
          "internalType": "struct Voting.Proposal",
          "name": "",
          "type": "tuple"
        }
      ],
      "stateMutability": "view",
      "type": "function",
      "constant": true
    },
    {
      "inputs": [
        {
          "internalType": "address",
          "name": "_voter",
          "type": "address"
        }
      ],
      "name": "numberProposalFor",
      "outputs": [
        {
          "internalType": "uint256",
          "name": "",
          "type": "uint256"
        }
      ],
      "stateMutability": "view",
      "type": "function",
      "constant": true
    },
    {
      "inputs": [],
      "name": "getAllProposals",
      "outputs": [
        {
          "components": [
            {
              "internalType": "uint256",
              "name": "index",
              "type": "uint256"
            },
            {
              "internalType": "string",
              "name": "description",
              "type": "string"
            },
            {
              "internalType": "uint256",
              "name": "voteCount",
              "type": "uint256"
            }
          ],
          "internalType": "struct Voting.Proposal[]",
          "name": "",
          "type": "tuple[]"
        }
      ],
      "stateMutability": "view",
      "type": "function",
      "constant": true
    },
    {
      "inputs": [],
      "name": "getLastProposalId",
      "outputs": [
        {
          "internalType": "uint256",
          "name": "",
          "type": "uint256"
        }
      ],
      "stateMutability": "view",
      "type": "function",
      "constant": true
    }
  ],
  "bytecode": "0x608060405260006003553480156200001657600080fd5b506200004962000034620000f2640100000000026401000000009004565b620000fa640100000000026401000000009004565b33600160006101000a81548173ffffffffffffffffffffffffffffffffffffffff021916908373ffffffffffffffffffffffffffffffffffffffff160217905550600060088190555060006009819055506000600a60006101000a81548160ff02191690836005811115620000e7577f4e487b7100000000000000000000000000000000000000000000000000000000600052602160045260246000fd5b0217905550620001be565b600033905090565b60008060009054906101000a900473ffffffffffffffffffffffffffffffffffffffff169050816000806101000a81548173ffffffffffffffffffffffffffffffffffffffff021916908373ffffffffffffffffffffffffffffffffffffffff1602179055508173ffffffffffffffffffffffffffffffffffffffff168173ffffffffffffffffffffffffffffffffffffffff167f8be0079c531659141344cd1fd0a4f28419497f9722a3daafe3b4186f6b6457e060405160405180910390a35050565b6131a180620001ce6000396000f3fe608060405234801561001057600080fd5b5060043610610133576000357c010000000000000000000000000000000000000000000000000000000090048063715018a6116100bf578063a51346201161008e578063a513462014610328578063a62c6fca14610346578063afc9615f14610364578063cceb68f514610382578063f2fde38b146103a057610133565b8063715018a6146102c657806374a8f103146102d05780638412e667146102ec5780638da5cb5b1461030a57610133565b80632fdae3c5116101065780632fdae3c5146101e85780633d635d4d1461021857806342fd823e1461024a5780634420e4861461027a57806368db49ed1461029657610133565b80630121b93f1461013857806309eef43e14610168578063166ee1aa14610199578063200d2ed2146101ca575b600080fd5b610152600480360381019061014d919061243d565b6103bc565b60405161015f91906128d0565b60405180910390f35b610182600480360381019061017d91906123aa565b61078a565b6040516101909291906128eb565b60405180910390f35b6101b360048036038101906101ae91906123d3565b6108a4565b6040516101c192919061292f565b60405180910390f35b6101d26109ea565b6040516101df9190612914565b60405180910390f35b61020260048036038101906101fd91906123fc565b6109fd565b60405161020f9190612b1a565b60405180910390f35b610232600480360381019061022d919061243d565b610e82565b60405161024193929190612b35565b60405180910390f35b610264600480360381019061025f91906123aa565b610f44565b6040516102719190612b1a565b60405180910390f35b610294600480360381019061028f91906123aa565b610f95565b005b6102b060048036038101906102ab91906123aa565b611223565b6040516102bd91906128d0565b60405180910390f35b6102ce61127c565b005b6102ea60048036038101906102e591906123aa565b611304565b005b6102f46114d7565b6040516103019190612914565b60405180910390f35b610312611b66565b60405161031f919061286a565b60405180910390f35b610330611b8f565b60405161033d9190612af8565b60405180910390f35b61034e611d58565b60405161035b9190612b1a565b60405180910390f35b61036c611d5e565b6040516103799190612b1a565b60405180910390f35b61038a611d68565b60405161039791906128ae565b60405180910390f35b6103ba60048036038101906103b591906123aa565b611e6d565b005b6000600360058111156103f8577f4e487b7100000000000000000000000000000000000000000000000000000000600052602160045260246000fd5b600a60009054906101000a900460ff166005811115610440577f4e487b7100000000000000000000000000000000000000000000000000000000600052602160045260246000fd5b14610480576040517f08c379a000000000000000000000000000000000000000000000000000000000815260040161047790612998565b60405180910390fd5b600460003373ffffffffffffffffffffffffffffffffffffffff1673ffffffffffffffffffffffffffffffffffffffff16815260200190815260200160002060000160009054906101000a900460ff1661050f576040517f08c379a0000000000000000000000000000000000000000000000000000000008152600401610506906129d8565b60405180910390fd5b600460003373ffffffffffffffffffffffffffffffffffffffff1673ffffffffffffffffffffffffffffffffffffffff16815260200190815260200160002060000160019054906101000a900460ff161561059f576040517f08c379a000000000000000000000000000000000000000000000000000000000815260040161059690612a78565b60405180910390fd5b600780549050821080156105b857506000600780549050115b6105f7576040517f08c379a00000000000000000000000000000000000000000000000000000000081526004016105ee90612a58565b60405180910390fd5b60078281548110610631577f4e487b7100000000000000000000000000000000000000000000000000000000600052603260045260246000fd5b9060005260206000209060030201600201600081548092919061065390612d56565b91905055506001600460003373ffffffffffffffffffffffffffffffffffffffff1673ffffffffffffffffffffffffffffffffffffffff16815260200190815260200160002060000160016101000a81548160ff02191690831515021790555081600460003373ffffffffffffffffffffffffffffffffffffffff1673ffffffffffffffffffffffffffffffffffffffff168152602001908152602001600020600201819055507f4d99b957a2bc29a30ebd96a7be8e68fe50a3c701db28a91436490b7d53870ca4338360405161072b929190612885565b60405180910390a1600460003373ffffffffffffffffffffffffffffffffffffffff1673ffffffffffffffffffffffffffffffffffffffff16815260200190815260200160002060000160019054906101000a900460ff169050919050565b600080600460008473ffffffffffffffffffffffffffffffffffffffff1673ffffffffffffffffffffffffffffffffffffffff16815260200190815260200160002060000160019054906101000a900460ff16600460008573ffffffffffffffffffffffffffffffffffffffff1673ffffffffffffffffffffffffffffffffffffffff16815260200190815260200160002060000160019054906101000a900460ff16610857577fffffffffffffffffffffffffffffffffffffffffffffffffffffffffffffffff61089b565b600460008573ffffffffffffffffffffffffffffffffffffffff1673ffffffffffffffffffffffffffffffffffffffff168152602001908152602001600020600201545b91509150915091565b6000806108af611f65565b73ffffffffffffffffffffffffffffffffffffffff166108cd611b66565b73ffffffffffffffffffffffffffffffffffffffff1614610923576040517f08c379a000000000000000000000000000000000000000000000000000000000815260040161091a90612a18565b60405180910390fd5b6000600a60009054906101000a900460ff16905083600a60006101000a81548160ff02191690836005811115610982577f4e487b7100000000000000000000000000000000000000000000000000000000600052602160045260246000fd5b02179055507f0a97a4ee45751e2abf3e4fc8946939630b11b371ea8ae39ccdc3056e98f5cc3f81600a60009054906101000a900460ff166040516109c792919061292f565b60405180910390a180600a60009054906101000a900460ff169250925050915091565b600a60009054906101000a900460ff1681565b600060016005811115610a39577f4e487b7100000000000000000000000000000000000000000000000000000000600052602160045260246000fd5b600a60009054906101000a900460ff166005811115610a81577f4e487b7100000000000000000000000000000000000000000000000000000000600052602160045260246000fd5b14610ac1576040517f08c379a0000000000000000000000000000000000000000000000000000000008152600401610ab890612958565b60405180910390fd5b600460003373ffffffffffffffffffffffffffffffffffffffff1673ffffffffffffffffffffffffffffffffffffffff16815260200190815260200160002060000160009054906101000a900460ff16610b50576040517f08c379a0000000000000000000000000000000000000000000000000000000008152600401610b47906129d8565b60405180910390fd5b6000600683604051610b629190612853565b908152602001604051809103902060405180606001604052908160008201548152602001600182018054610b9590612cf3565b80601f0160208091040260200160405190810160405280929190818152602001828054610bc190612cf3565b8015610c0e5780601f10610be357610100808354040283529160200191610c0e565b820191906000526020600020905b815481529060010190602001808311610bf157829003601f168201915b50505050508152602001600282015481525050905082604051602001610c349190612853565b604051602081830303815290604052805190602001208160200151604051602001610c5f9190612853565b604051602081830303815290604052805190602001201415610cb6576040517f08c379a0000000000000000000000000000000000000000000000000000000008152600401610cad90612a38565b60405180910390fd5b6000600560003373ffffffffffffffffffffffffffffffffffffffff1673ffffffffffffffffffffffffffffffffffffffff168152602001908152602001600020905060086000815480929190610d0c90612d56565b91905055826000018181525050838260200181905250600082604001818152505080829080600181540180825580915050600190039060005260206000209060030201600090919091909150600082015181600001556020820151816001019080519060200190610d7e929190612213565b506040820151816002015550506007829080600181540180825580915050600190039060005260206000209060030201600090919091909150600082015181600001556020820151816001019080519060200190610ddd929190612213565b5060408201518160020155505081600685604051610dfb9190612853565b9081526020016040518091039020600082015181600001556020820151816001019080519060200190610e2f929190612213565b50604082015181600201559050507f92e393e9b54e2f801d3ea4beb0c5e71a21cc34a5d34b77d0fb8a3aa1650dc18f600854604051610e6e9190612b1a565b60405180910390a160085492505050919050565b60078181548110610e9257600080fd5b9060005260206000209060030201600091509050806000015490806001018054610ebb90612cf3565b80601f0160208091040260200160405190810160405280929190818152602001828054610ee790612cf3565b8015610f345780601f10610f0957610100808354040283529160200191610f34565b820191906000526020600020905b815481529060010190602001808311610f1757829003601f168201915b5050505050908060020154905083565b600080600560008473ffffffffffffffffffffffffffffffffffffffff1673ffffffffffffffffffffffffffffffffffffffff16815260200190815260200160002090508080549050915050919050565b60006005811115610fcf577f4e487b7100000000000000000000000000000000000000000000000000000000600052602160045260246000fd5b600a60009054906101000a900460ff166005811115611017577f4e487b7100000000000000000000000000000000000000000000000000000000600052602160045260246000fd5b14611057576040517f08c379a000000000000000000000000000000000000000000000000000000000815260040161104e90612ad8565b60405180910390fd5b60011515600460008373ffffffffffffffffffffffffffffffffffffffff1673ffffffffffffffffffffffffffffffffffffffff16815260200190815260200160002060000160009054906101000a900460ff16151514156110ee576040517f08c379a00000000000000000000000000000000000000000000000000000000081526004016110e5906129b8565b60405180910390fd5b6110f6612299565b60018160000190151590811515815250506009600081548092919061111a90612d56565b919050558160400181815250507fffffffffffffffffffffffffffffffffffffffffffffffffffffffffffffffff81606001818152505080600460008473ffffffffffffffffffffffffffffffffffffffff1673ffffffffffffffffffffffffffffffffffffffff16815260200190815260200160002060008201518160000160006101000a81548160ff02191690831515021790555060208201518160000160016101000a81548160ff02191690831515021790555060408201518160010155606082015181600201559050507fb6be2187d059cc2a55fe29e0e503b566e1e0f8c8780096e185429350acffd3dd82604051611217919061286a565b60405180910390a15050565b6000600460008373ffffffffffffffffffffffffffffffffffffffff1673ffffffffffffffffffffffffffffffffffffffff16815260200190815260200160002060000160009054906101000a900460ff169050919050565b611284611f65565b73ffffffffffffffffffffffffffffffffffffffff166112a2611b66565b73ffffffffffffffffffffffffffffffffffffffff16146112f8576040517f08c379a00000000000000000000000000000000000000000000000000000000081526004016112ef90612a18565b60405180910390fd5b6113026000611f6d565b565b61130c611f65565b73ffffffffffffffffffffffffffffffffffffffff1661132a611b66565b73ffffffffffffffffffffffffffffffffffffffff1614611380576040517f08c379a000000000000000000000000000000000000000000000000000000000815260040161137790612a18565b60405180910390fd5b6000600460008373ffffffffffffffffffffffffffffffffffffffff1673ffffffffffffffffffffffffffffffffffffffff16815260200190815260200160002060000160006101000a81548160ff0219169083151502179055506000600460008373ffffffffffffffffffffffffffffffffffffffff1673ffffffffffffffffffffffffffffffffffffffff16815260200190815260200160002060000160016101000a81548160ff0219169083151502179055507fffffffffffffffffffffffffffffffffffffffffffffffffffffffffffffffff600460008373ffffffffffffffffffffffffffffffffffffffff1673ffffffffffffffffffffffffffffffffffffffff168152602001908152602001600020600201819055507f8bd8971f91a5fea9c7ec31a7cd7a7cc467c75c932ea4bc73be16a0253d79eb87816040516114cc919061286a565b60405180910390a150565b60006114e1611f65565b73ffffffffffffffffffffffffffffffffffffffff166114ff611b66565b73ffffffffffffffffffffffffffffffffffffffff1614611555576040517f08c379a000000000000000000000000000000000000000000000000000000000815260040161154c90612a18565b60405180910390fd5b60058081111561158e577f4e487b7100000000000000000000000000000000000000000000000000000000600052602160045260246000fd5b600a60009054906101000a900460ff1660058111156115d6577f4e487b7100000000000000000000000000000000000000000000000000000000600052602160045260246000fd5b1415611617576040517f08c379a000000000000000000000000000000000000000000000000000000000815260040161160e90612ab8565b60405180910390fd5b60006005811115611651577f4e487b7100000000000000000000000000000000000000000000000000000000600052602160045260246000fd5b600a60009054906101000a900460ff166005811115611699577f4e487b7100000000000000000000000000000000000000000000000000000000600052602160045260246000fd5b1415611721576001600a60006101000a81548160ff021916908360058111156116eb577f4e487b7100000000000000000000000000000000000000000000000000000000600052602160045260246000fd5b02179055507f344c25562921d075a298d34b6dd1fd00d36ff293974539dfd4a8c625d9f0064c60405160405180910390a1611b51565b6001600581111561175b577f4e487b7100000000000000000000000000000000000000000000000000000000600052602160045260246000fd5b600a60009054906101000a900460ff1660058111156117a3577f4e487b7100000000000000000000000000000000000000000000000000000000600052602160045260246000fd5b141561182b576002600a60006101000a81548160ff021916908360058111156117f5577f4e487b7100000000000000000000000000000000000000000000000000000000600052602160045260246000fd5b02179055507f240cb87b2e4df4c318e72bd714d45a9cad60249e883ff56b1fffd83a4595a8fa60405160405180910390a1611b50565b60026005811115611865577f4e487b7100000000000000000000000000000000000000000000000000000000600052602160045260246000fd5b600a60009054906101000a900460ff1660058111156118ad577f4e487b7100000000000000000000000000000000000000000000000000000000600052602160045260246000fd5b1415611935576003600a60006101000a81548160ff021916908360058111156118ff577f4e487b7100000000000000000000000000000000000000000000000000000000600052602160045260246000fd5b02179055507f1b8e19a458c1bcd88553332c518cc5c4e2d5793e712ee766d4f1c14f672ef1f560405160405180910390a1611b4f565b6003600581111561196f577f4e487b7100000000000000000000000000000000000000000000000000000000600052602160045260246000fd5b600a60009054906101000a900460ff1660058111156119b7577f4e487b7100000000000000000000000000000000000000000000000000000000600052602160045260246000fd5b1415611a3f576004600a60006101000a81548160ff02191690836005811115611a09577f4e487b7100000000000000000000000000000000000000000000000000000000600052602160045260246000fd5b02179055507fc379d349a6301baf50fb2f98d829f4ae10b1cdb7c66f4e4d8117302df7b8cd4c60405160405180910390a1611b4e565b60046005811115611a79577f4e487b7100000000000000000000000000000000000000000000000000000000600052602160045260246000fd5b600a60009054906101000a900460ff166005811115611ac1577f4e487b7100000000000000000000000000000000000000000000000000000000600052602160045260246000fd5b1415611b4d57611acf612031565b6005600a60006101000a81548160ff02191690836005811115611b1b577f4e487b7100000000000000000000000000000000000000000000000000000000600052602160045260246000fd5b02179055507f0e5e95ff8725ab3e7a4b6b59998a4c344c2aa8d1485f5e60cb7f337768e6134760405160405180910390a15b5b5b5b5b600a60009054906101000a900460ff16905090565b60008060009054906101000a900473ffffffffffffffffffffffffffffffffffffffff16905090565b611b976122c5565b600580811115611bd0577f4e487b7100000000000000000000000000000000000000000000000000000000600052602160045260246000fd5b600a60009054906101000a900460ff166005811115611c18577f4e487b7100000000000000000000000000000000000000000000000000000000600052602160045260246000fd5b14611c58576040517f08c379a0000000000000000000000000000000000000000000000000000000008152600401611c4f906129f8565b60405180910390fd5b600760025481548110611c94577f4e487b7100000000000000000000000000000000000000000000000000000000600052603260045260246000fd5b906000526020600020906003020160405180606001604052908160008201548152602001600182018054611cc790612cf3565b80601f0160208091040260200160405190810160405280929190818152602001828054611cf390612cf3565b8015611d405780601f10611d1557610100808354040283529160200191611d40565b820191906000526020600020905b815481529060010190602001808311611d2357829003601f168201915b50505050508152602001600282015481525050905090565b60095481565b6000600854905090565b60606007805480602002602001604051908101604052809291908181526020016000905b82821015611e64578382906000526020600020906003020160405180606001604052908160008201548152602001600182018054611dc990612cf3565b80601f0160208091040260200160405190810160405280929190818152602001828054611df590612cf3565b8015611e425780601f10611e1757610100808354040283529160200191611e42565b820191906000526020600020905b815481529060010190602001808311611e2557829003601f168201915b5050505050815260200160028201548152505081526020019060010190611d8c565b50505050905090565b611e75611f65565b73ffffffffffffffffffffffffffffffffffffffff16611e93611b66565b73ffffffffffffffffffffffffffffffffffffffff1614611ee9576040517f08c379a0000000000000000000000000000000000000000000000000000000008152600401611ee090612a18565b60405180910390fd5b600073ffffffffffffffffffffffffffffffffffffffff168173ffffffffffffffffffffffffffffffffffffffff161415611f59576040517f08c379a0000000000000000000000000000000000000000000000000000000008152600401611f5090612978565b60405180910390fd5b611f6281611f6d565b50565b600033905090565b60008060009054906101000a900473ffffffffffffffffffffffffffffffffffffffff169050816000806101000a81548173ffffffffffffffffffffffffffffffffffffffff021916908373ffffffffffffffffffffffffffffffffffffffff1602179055508173ffffffffffffffffffffffffffffffffffffffff168173ffffffffffffffffffffffffffffffffffffffff167f8be0079c531659141344cd1fd0a4f28419497f9722a3daafe3b4186f6b6457e060405160405180910390a35050565b6004600581111561206b577f4e487b7100000000000000000000000000000000000000000000000000000000600052602160045260246000fd5b600a60009054906101000a900460ff1660058111156120b3577f4e487b7100000000000000000000000000000000000000000000000000000000600052602160045260246000fd5b146120f3576040517f08c379a00000000000000000000000000000000000000000000000000000000081526004016120ea90612a98565b60405180910390fd5b60005b6007805490508110156122105760035460078281548110612140577f4e487b7100000000000000000000000000000000000000000000000000000000600052603260045260246000fd5b90600052602060002090600302016002015411156121fd5760078181548110612192577f4e487b7100000000000000000000000000000000000000000000000000000000600052603260045260246000fd5b906000526020600020906003020160020154600381905550600781815481106121e4577f4e487b7100000000000000000000000000000000000000000000000000000000600052603260045260246000fd5b9060005260206000209060030201600001546002819055505b808061220890612d56565b9150506120f6565b50565b82805461221f90612cf3565b90600052602060002090601f0160209004810192826122415760008555612288565b82601f1061225a57805160ff1916838001178555612288565b82800160010185558215612288579182015b8281111561228757825182559160200191906001019061226c565b5b50905061229591906122e6565b5090565b604051806080016040528060001515815260200160001515815260200160008152602001600081525090565b60405180606001604052806000815260200160608152602001600081525090565b5b808211156122ff5760008160009055506001016122e7565b5090565b600061231661231184612b98565b612b73565b90508281526020810184848401111561232e57600080fd5b612339848285612cb1565b509392505050565b6000813590506123508161312d565b92915050565b60008135905061236581613144565b92915050565b600082601f83011261237c57600080fd5b813561238c848260208601612303565b91505092915050565b6000813590506123a481613154565b92915050565b6000602082840312156123bc57600080fd5b60006123ca84828501612341565b91505092915050565b6000602082840312156123e557600080fd5b60006123f384828501612356565b91505092915050565b60006020828403121561240e57600080fd5b600082013567ffffffffffffffff81111561242857600080fd5b6124348482850161236b565b91505092915050565b60006020828403121561244f57600080fd5b600061245d84828501612395565b91505092915050565b60006124728383612795565b905092915050565b61248381612c3a565b82525050565b600061249482612bd9565b61249e8185612bfc565b9350836020820285016124b085612bc9565b8060005b858110156124ec57848403895281516124cd8582612466565b94506124d883612bef565b925060208a019950506001810190506124b4565b50829750879550505050505092915050565b61250781612c4c565b82525050565b61251681612c9f565b82525050565b61252581612c6b565b82525050565b600061253682612be4565b6125408185612c0d565b9350612550818560208601612cc0565b61255981612e5b565b840191505092915050565b600061256f82612be4565b6125798185612c1e565b9350612589818560208601612cc0565b61259281612e5b565b840191505092915050565b60006125a882612be4565b6125b28185612c2f565b93506125c2818560208601612cc0565b80840191505092915050565b60006125db602483612c1e565b91506125e682612e6c565b604082019050919050565b60006125fe602683612c1e565b915061260982612ebb565b604082019050919050565b6000612621602483612c1e565b915061262c82612f0a565b604082019050919050565b6000612644601e83612c1e565b915061264f82612f59565b602082019050919050565b6000612667601a83612c1e565b915061267282612f82565b602082019050919050565b600061268a601d83612c1e565b915061269582612fab565b602082019050919050565b60006126ad602083612c1e565b91506126b882612fd4565b602082019050919050565b60006126d0601b83612c1e565b91506126db82612ffd565b602082019050919050565b60006126f3601a83612c1e565b91506126fe82613026565b602082019050919050565b6000612716601b83612c1e565b91506127218261304f565b602082019050919050565b6000612739602083612c1e565b915061274482613078565b602082019050919050565b600061275c602d83612c1e565b9150612767826130a1565b604082019050919050565b600061277f602083612c1e565b915061278a826130f0565b602082019050919050565b60006060830160008301516127ad6000860182612835565b50602083015184820360208601526127c5828261252b565b91505060408301516127da6040860182612835565b508091505092915050565b60006060830160008301516127fd6000860182612835565b5060208301518482036020860152612815828261252b565b915050604083015161282a6040860182612835565b508091505092915050565b61283e81612c95565b82525050565b61284d81612c95565b82525050565b600061285f828461259d565b915081905092915050565b600060208201905061287f600083018461247a565b92915050565b600060408201905061289a600083018561247a565b6128a76020830184612844565b9392505050565b600060208201905081810360008301526128c88184612489565b905092915050565b60006020820190506128e560008301846124fe565b92915050565b600060408201905061290060008301856124fe565b61290d602083018461251c565b9392505050565b6000602082019050612929600083018461250d565b92915050565b6000604082019050612944600083018561250d565b612951602083018461250d565b9392505050565b60006020820190508181036000830152612971816125ce565b9050919050565b60006020820190508181036000830152612991816125f1565b9050919050565b600060208201905081810360008301526129b181612614565b9050919050565b600060208201905081810360008301526129d181612637565b9050919050565b600060208201905081810360008301526129f18161265a565b9050919050565b60006020820190508181036000830152612a118161267d565b9050919050565b60006020820190508181036000830152612a31816126a0565b9050919050565b60006020820190508181036000830152612a51816126c3565b9050919050565b60006020820190508181036000830152612a71816126e6565b9050919050565b60006020820190508181036000830152612a9181612709565b9050919050565b60006020820190508181036000830152612ab18161272c565b9050919050565b60006020820190508181036000830152612ad18161274f565b9050919050565b60006020820190508181036000830152612af181612772565b9050919050565b60006020820190508181036000830152612b1281846127e5565b905092915050565b6000602082019050612b2f6000830184612844565b92915050565b6000606082019050612b4a6000830186612844565b8181036020830152612b5c8185612564565b9050612b6b6040830184612844565b949350505050565b6000612b7d612b8e565b9050612b898282612d25565b919050565b6000604051905090565b600067ffffffffffffffff821115612bb357612bb2612e2c565b5b612bbc82612e5b565b9050602081019050919050565b6000819050602082019050919050565b600081519050919050565b600081519050919050565b6000602082019050919050565b600082825260208201905092915050565b600082825260208201905092915050565b600082825260208201905092915050565b600081905092915050565b6000612c4582612c75565b9050919050565b60008115159050919050565b6000819050612c6682613119565b919050565b6000819050919050565b600073ffffffffffffffffffffffffffffffffffffffff82169050919050565b6000819050919050565b6000612caa82612c58565b9050919050565b82818337600083830152505050565b60005b83811015612cde578082015181840152602081019050612cc3565b83811115612ced576000848401525b50505050565b60006002820490506001821680612d0b57607f821691505b60208210811415612d1f57612d1e612dfd565b5b50919050565b612d2e82612e5b565b810181811067ffffffffffffffff82111715612d4d57612d4c612e2c565b5b80604052505050565b6000612d6182612c95565b91507fffffffffffffffffffffffffffffffffffffffffffffffffffffffffffffffff821415612d9457612d93612d9f565b5b600182019050919050565b7f4e487b7100000000000000000000000000000000000000000000000000000000600052601160045260246000fd5b7f4e487b7100000000000000000000000000000000000000000000000000000000600052602160045260246000fd5b7f4e487b7100000000000000000000000000000000000000000000000000000000600052602260045260246000fd5b7f4e487b7100000000000000000000000000000000000000000000000000000000600052604160045260246000fd5b6000601f19601f8301169050919050565b7f50726f706f73616c20526567697374726174696f6e206973204e4f542053746160008201527f7274656400000000000000000000000000000000000000000000000000000000602082015250565b7f4f776e61626c653a206e6577206f776e657220697320746865207a65726f206160008201527f6464726573730000000000000000000000000000000000000000000000000000602082015250565b7f566f74696e672073657373696f6e206973204e4f54206f70656e206f7220636c60008201527f6f73656400000000000000000000000000000000000000000000000000000000602082015250565b7f54686520566f74657220697320616c7265616479207265676973747265640000600082015250565b7f54686520566f746572206973204e4f5420726567697374726564000000000000600082015250565b7f566f74657320617265204e4f5420616c72656164792074616c6c696564000000600082015250565b7f4f776e61626c653a2063616c6c6572206973206e6f7420746865206f776e6572600082015250565b7f50726f706f73616c20616c726561647920657869737473202121210000000000600082015250565b7f5468652070726f706f73616c20494420697320556e6b6e6f776e000000000000600082015250565b7f54686520566f7465722068617320616c726561647920766f7465640000000000600082015250565b7f566f74696e672073657373696f6e206973204e4f542079657420636c6f736564600082015250565b7f4e6f20537461746520746f206368616e67652c20566f74696e672070726f636560008201527f7373206973206f7665722e2e2e00000000000000000000000000000000000000602082015250565b7f54686520566f74657220526567697374726174696f6e20697320636c6f736564600082015250565b6006811061312a57613129612dce565b5b50565b61313681612c3a565b811461314157600080fd5b50565b6006811061315157600080fd5b50565b61315d81612c95565b811461316857600080fd5b5056fea2646970667358221220726c42791833333f2157141a35f92b16dd0251525cd051ef831e0980a9ef3a0c64736f6c63430008020033",
  "immutableReferences": {},
  "source": "// SPDX-License-Identifier: GPL-3.0\r\n\r\npragma solidity 0.8.2;\r\n\r\nimport \"@openzeppelin/contracts/access/Ownable.sol\";\r\n\r\n\r\ncontract Voting is Ownable {\r\n    \r\n    address admin;\r\n    \r\n    uint private winningProposalId ;\r\n    uint private maxCount = 0;\r\n    \r\n    // Map des votants\r\n    mapping(address=>Voter) voters ;\r\n    // Map des propositions par votants \r\n    mapping(address=>Proposal[]) internal  proposals  ;\r\n    \r\n    // Map des propositions\r\n    // mapping(uint=>Proposal) proposalMap;\r\n    mapping(string=>Proposal) proposalByString;\r\n    \r\n    // Table de toutes les propositions\r\n    Proposal[] public proposalVote ;\r\n    uint internal lastProposalId ;\r\n    \r\n    //\r\n    // voterNumber -> addresses[voterNumber] = voters[address]\r\n    //\r\n    struct Voter {\r\n        bool isRegistered;\r\n        bool hasVoted;\r\n        uint voterNumber;\r\n        int proposalId;\r\n    }\r\n\r\n    \r\n    uint public lastVoterIndex  ;\r\n\r\n    struct Proposal {\r\n        uint index;\r\n        string description;\r\n        uint  voteCount ;\r\n    }\r\n\r\n    WorkflowStatus public status ;\r\n    \r\n    event VoterRegistered(address voterAddress);\r\n    event VoterRevoked(address voterAddress);\r\n\r\n    event ProposalsRegistrationStarted();\r\n    event ProposalsRegistrationEnded();\r\n    event ProposalRegistered(uint proposalId);\r\n    event VotingSessionStarted();\r\n    event VotingSessionEnded();\r\n    event Voted (address voter, uint proposalId);\r\n    event VotesTallied();\r\n    event WorkflowStatusChange(WorkflowStatus previousStatus, WorkflowStatus newStatus);\r\n    \r\n    //\r\n    // Evenement lis  l'enregistrement des votants\r\n    //\r\n    event WhitelistRevoked(address _address);\r\n    event WhitelistPacked(string _message);\r\n   \r\n    enum WorkflowStatus {\r\n            RegisteringVoters,\r\n            ProposalsRegistrationStarted,\r\n            ProposalsRegistrationEnded,\r\n            VotingSessionStarted,\r\n            VotingSessionEnded,\r\n            VotesTallied\r\n    }\r\n    \r\n    /**\r\n     * \r\n     * Only for Admin/Owner\r\n     * \r\n     */\r\n    function revertState(WorkflowStatus _status) public onlyOwner returns(WorkflowStatus,WorkflowStatus) {\r\n        WorkflowStatus from = status;\r\n        status = _status;\r\n        emit WorkflowStatusChange(from,status);\r\n        return (from, status);\r\n    }\r\n    \r\n    function changeState() public onlyOwner returns(WorkflowStatus) {\r\n        require(\r\n            status != WorkflowStatus.VotesTallied,\r\n            \"No State to change, Voting process is over...\"\r\n        );\r\n        if ( status == WorkflowStatus.RegisteringVoters){\r\n             status = WorkflowStatus.ProposalsRegistrationStarted;\r\n             emit ProposalsRegistrationStarted();\r\n        }else if ( status == WorkflowStatus.ProposalsRegistrationStarted){\r\n             status = WorkflowStatus.ProposalsRegistrationEnded;\r\n             emit ProposalsRegistrationEnded();\r\n        }else if ( status == WorkflowStatus.ProposalsRegistrationEnded ){\r\n             status = WorkflowStatus.VotingSessionStarted;\r\n             emit VotingSessionStarted();\r\n        }else if ( status == WorkflowStatus.VotingSessionStarted ){\r\n             status = WorkflowStatus.VotingSessionEnded;\r\n             emit VotingSessionEnded();\r\n        }else if ( status == WorkflowStatus.VotingSessionEnded ){\r\n             computeWinningProposal();\r\n             status = WorkflowStatus.VotesTallied;\r\n             emit VotesTallied();\r\n        }\r\n        return status;\r\n    }\r\n    \r\n    function revoke(address _address) public onlyOwner {\r\n        voters[_address].isRegistered = false;\r\n        voters[_address].hasVoted = false;\r\n        voters[_address].proposalId = -1;\r\n        emit VoterRevoked(_address);\r\n    }\r\n    \r\n    constructor(){\r\n        admin=msg.sender;\r\n        lastProposalId = 0;\r\n        lastVoterIndex = 0;\r\n        status = WorkflowStatus.RegisteringVoters;\r\n    }\r\n    \r\n    \r\n    function register(address _address) public {\r\n        require(\r\n            status == WorkflowStatus.RegisteringVoters,\r\n            \"The Voter Registration is closed\"\r\n        );\r\n        require(\r\n            voters[_address].isRegistered != true ,\r\n            \"The Voter is already registred\"\r\n        );\r\n        Voter memory  v ;\r\n        v.isRegistered = true;\r\n        v.voterNumber = lastVoterIndex++;\r\n        v.proposalId = -1;\r\n        voters[_address] = v;\r\n        emit VoterRegistered(_address);\r\n    }\r\n    \r\n    \r\n    function isRegistred(address _address) public view returns(bool){\r\n        return ( voters[_address].isRegistered ) ;\r\n    }\r\n    \r\n    function hasVoted(address _address) public view returns(bool, int){\r\n        return ( voters[_address].hasVoted, (voters[_address].hasVoted ? voters[_address].proposalId : -1 )) ;\r\n    }\r\n    \r\n    \r\n    /**\r\n     * \r\n     * Voters can vote if :\r\n     *   - Voting session is open\r\n     *   - They are registred\r\n     *   - The proposal ID exists\r\n     *   - They haven't already voted\r\n     **/\r\n    function vote(uint _proposalId) public returns(bool) {\r\n        require(\r\n            status == WorkflowStatus.VotingSessionStarted,\r\n            \"Voting session is NOT open or closed\"\r\n        );\r\n        require(\r\n            voters[msg.sender].isRegistered,\r\n            \"The Voter is NOT registred\"\r\n        );\r\n        require(\r\n            ! voters[msg.sender].hasVoted,\r\n            \"The Voter has already voted\"\r\n        );\r\n         require(\r\n             _proposalId < proposalVote.length && proposalVote.length > 0,\r\n            \"The proposal ID is Unknown\"\r\n        );\r\n        \r\n        // proposalMap[_proposalId].voteCount++;\r\n        proposalVote[_proposalId].voteCount++;\r\n        \r\n        voters[msg.sender].hasVoted = true;\r\n        voters[msg.sender].proposalId = int(_proposalId);\r\n        emit Voted(msg.sender, _proposalId);\r\n        \r\n        return voters[msg.sender].hasVoted;\r\n    }\r\n    \r\n    function addProposal(string memory _description) public returns(uint) {\r\n        require(\r\n            status == WorkflowStatus.ProposalsRegistrationStarted,\r\n            \"Proposal Registration is NOT Started\"\r\n        );\r\n        require(\r\n            voters[msg.sender].isRegistered,\r\n            \"The Voter is NOT registred\"\r\n        );\r\n        \r\n       \r\n       Proposal memory pr = proposalByString[_description];\r\n       \r\n       if ( keccak256(abi.encodePacked(pr.description)) == keccak256(abi.encodePacked(_description)) ){\r\n           revert(\"Proposal already exists !!!\") ;\r\n       }\r\n       \r\n        Proposal[] storage entries = proposals[msg.sender] ;\r\n        \r\n        pr.index = lastProposalId++;\r\n        pr.description = _description;\r\n        pr.voteCount=0;\r\n        \r\n        entries.push(pr);\r\n        proposalVote.push(pr) ;\r\n        proposalByString[_description]  = pr;\r\n        \r\n        emit ProposalRegistered(lastProposalId);\r\n        return lastProposalId;\r\n    }\r\n    \r\n    \r\n    function computeWinningProposal() private {\r\n        require(\r\n            status == WorkflowStatus.VotingSessionEnded,\r\n            \"Voting session is NOT yet closed\"\r\n        );\r\n        \r\n        for(uint idx=0;idx < proposalVote.length;idx++ ){\r\n            if ( proposalVote[idx].voteCount > maxCount ){\r\n                 maxCount = proposalVote[idx].voteCount;\r\n                 winningProposalId = proposalVote[idx].index;\r\n            }\r\n        }\r\n    }\r\n    \r\n    function getWinningProposal() public view returns (Proposal memory){\r\n        require(\r\n            status == WorkflowStatus.VotesTallied,\r\n            \"Votes are NOT already tallied\"\r\n        );\r\n        return proposalVote[winningProposalId];\r\n    }\r\n    \r\n    \r\n    function numberProposalFor(address _voter) public view returns (uint){\r\n        Proposal[] storage entries = proposals[_voter] ;\r\n        return entries.length;\r\n    }\r\n    \r\n    function getAllProposals() public view returns(Proposal[] memory){\r\n       return proposalVote;\r\n    }\r\n    \r\n     function getLastProposalId() public view returns(uint){\r\n       return lastProposalId;\r\n    }\r\n       \r\n}",
  "sourcePath": "D:\\Formations\\Alyra\\BC-Alyra\\Projects\\Truffle\\truffle-react-voting\\contracts\\Voting.sol",
  "compiler": {
    "name": "solc",
    "version": "0.8.2+commit.661d1103.Emscripten.clang"
  },
  "schemaVersion": "3.4.2",
  "updatedAt": "2021-09-15T16:14:12.481Z",
  "networkType": "ethereum",
  "devdoc": {
    "kind": "dev",
    "methods": {
      "owner()": {
        "details": "Returns the address of the current owner."
      },
      "renounceOwnership()": {
        "details": "Leaves the contract without owner. It will not be possible to call `onlyOwner` functions anymore. Can only be called by the current owner. NOTE: Renouncing ownership will leave the contract without an owner, thereby removing any functionality that is only available to the owner."
      },
      "transferOwnership(address)": {
        "details": "Transfers ownership of the contract to a new account (`newOwner`). Can only be called by the current owner."
      }
    },
    "version": 1
  },
  "userdoc": {
    "kind": "user",
    "methods": {
      "revertState(uint8)": {
        "notice": " Only for Admin/Owner "
      },
      "vote(uint256)": {
        "notice": " Voters can vote if :   - Voting session is open   - They are registred   - The proposal ID exists   - They haven't already voted*"
      }
    },
    "version": 1
  }
}